:020000041000EA
:101000004805002019100010000000009910001081
:1010100000040100000100001149124A124B00F0C7
:1010200018F8124880471249124A134B00F011F881
:101030001249134A134B00F00CF81349134A0020CD
:10104000521A02DD043A8850FCDC114880471148EE
:1010500080479B1A03DD043BC858D050FBDC704727
:10106000A07A00100C00002044010020E9100010BC
:10107000D87B00104805002064070020F47D001094
:10108000640700206407002064070020880900200E
:10109000AD370010AD310010FEE700000C4A08B576
:1010A00013680C491B041B0E0B60FF2112681140D2
:1010B000094A1160002B03D10848094B186008BD8C
:1010C0001B025918074802F0CBF94000F5E7C0466B
:1010D0000003014068070020640700200048E80181
:1010E000FC3F0020000024F408B501F03BFC01F0B7
:1010F00043FC08BDF0B503252C1C0C40E40047461A
:10110000A046F8244646B4408B089B00C31880B420
:101110001F690426A7431F614F00BD40446FAC43C5
:1011200007250D40AD00AE404467CC08A40004196B
:10113000276CB74327645678276CAE40351C3D4377
:1011400025640C4CA0420ED0147865B2002D02DA52
:1011500052688A40426041468C401A6914431C61BF
:1011600004BC9046F0BD01258D40046EAC4304667E
:10117000EAE7C04600020440C0230421084A536243
:10118000536A1942FCD18021064AC90513691843E4
:10119000106113680B42FCD1C322014B5A627047A5
:1011A0000000014000030140034B9B681840431EB0
:1011B0009841C0B27047C04600030140F8B5C02353
:1011C00004242D4A5362536A1C42FCD12B4A2C4DF5
:1011D0001468136824041D402A4B240E2B430B4330
:1011E00080211360C90513680B42FCD1844229D9C0
:1011F0008021254B8600214A9C46224FC905B442D6
:101200000CD965461368A4082B403B4325022B43A9
:10121000136013680B42FCD1B442F2D8174A1A4B40
:10122000116800020B4017490B43802103431360F0
:10123000C90513680B42FCD1C3220F4B5A62FFF75A
:101240002DFFF8BD80210D4A0F4F0E4EC905A3009A
:101250009842E3D9002C0AD0A5021C1C13683B401D
:1012600033432B43136013680B42FCD1EFE7802517
:101270000424ED00F2E7C0460000014000030140F5
:1012800000FF0FC00000F03FFF000FC0C02304218B
:101290000B4A10B55362536A1942FCD18268416807
:1012A000084C11432368084A1340C3220B432360B0
:1012B000034B5A6243780178181CFFF77FFF10BD7B
:1012C0000000014000030140FFFFF0FF014B1868E0
:1012D0007047C046FC3F002038B5094B041C0D1C6C
:1012E000984209D080235B00E3602168054B0B40E6
:1012F000A9031943216038BD0420FFF73DFFF1E742
:1013000000000448FF3FFFFF0B6843614B799B06D9
:10131000DB0F1B0543600B791B071B0F43624B79E7
:101320001B071B0F03624B79DB06DB0F83610B7915
:101330001B09C3627047C04630B50B290CD8074B58
:101340008900CD58064BCC58002C05D0A821AA40C6
:101350004358A3431A43425030BDC046FC750010A9
:101360002C76001038B5A023041C0D1CDB05984218
:1013700009D080235B00E3602168054B0B40A90383
:101380001943216038BD0220FFF7F6FEF1E7C046A1
:10139000FF3FFFFF0123142203610B6843614B7B76
:1013A000DB06DB0F1B0543600B7B1B071B0F436238
:1013B0000B7B1B09C3624B7B1B071B0F03624B6834
:1013C00083618B68534083647047C04603680A0C8E
:1013D00009049343090C19430160704710B50324B5
:1013E0004368A343194341604369012A03D0044A77
:1013F0001340436110BD8022D2001343F9E7C04679
:10140000FFFBFFFF10B50C2443688900A343194379
:1014100041604169024B12020B401A43426110BD08
:10142000FFFCFFFF4268034B09031340194341606F
:101430007047C046FFCFFFFF80224369C901934335
:10144000194341617047C04670B504AC46682578C1
:101450000D4C89043440214341604169012A0FD079
:101460000A4A0A40002D07D109490A400949DB060A
:101470000A401343436170BD802109040A43F5E724
:10148000802252040A43EDE7FFFFF3FFFFFFFFFE58
:10149000FFFF7FFFFFFFFFE74268034B8903134015
:1014A000194341607047C046FF3FFFFF4268034B4E
:1014B00009021340194341607047C046FFFCFFFF1B
:1014C0004268034B89021340194341607047C0468C
:1014D000FFF3FFFF802342685B02134343607047C2
:1014E000802310B544689B02234343604369002A6C
:1014F00008D0802292031343012907D0054A1340E4
:10150000436110BD044A13400129F7D18022D20360
:101510001343F5E7FFFFBFFFFFFFDFFF10B5154BDC
:1015200004681C404B789B042343134C234054789D
:1015300024052343114C23408C78E4052343104CAD
:1015400023409478240623430E4C2340CC7809781A
:10155000E40623430C4C09012340D4781278640735
:101560002343F024A3430B43084912020B401343C7
:10157000036010BDFFFFF3FFFFFFCFFFFFFF7FFF03
:10158000FFFFFFFEFFFFFFE7FFFFFF9FFFF0FFFFF3
:10159000F0B54E1EF6B27400E4B2251C1035EDB263
:1015A0004746AC4680B403256746A846BD4003685D
:1015B0001531AB435578C9B2BD402B4301258D4051
:1015C000AB43957847468D4019342B43D578E4B228
:1015D000A740A5400F24B600F1B212788C408A4093
:1015E000BB432B43A3431343036004BC9046F0BDAD
:1015F00041637047002901D042647047C263FCE731
:1016000030B50B290CD8074B8900CC58064BCD5868
:10161000002C05D0A821AA404358A3431A434250A6
:1016200030BDC0468C7600105C7600104B680365B8
:101630008B6843650B68C3647047C04610B50324CC
:1016400049008A408C40111C436FA3434367436F9A
:101650001943416710BDC046F8B50D1C171C041C8A
:1016600000F066F82A7A002A2BD056080136360296
:10167000002F06D02B79201C2968002B25D000F0E4
:10168000CFF8EA79531E5A00144B13438122334397
:10169000E3636B795200013B1B0613436363AB7931
:1016A000002B15D16A79616B531E1B040B436363D6
:1016B000A023DB00A36301235B42E3646B89236403
:1016C000F8BD902610223601D2E700F051F8D8E795
:1016D000626B013B1B0413436363E9E701000300F2
:1016E00084235B00C258E023DB041A420BD17F2223
:1016F000836B9343DBB2802BFAD080239B01C364BE
:101700008023C1507047C0235B00C150FAE7C04638
:1017100086235B00C258E023DB041A4204D08E23E8
:101720005B00C05880B27047406D80B2FBE7C04696
:10173000902310B5DB05041E9C420DD00B4B984244
:101740000AD003230122E360E3681A42FCD00F228F
:10175000236C9343236410BD0820FFF70DFD082080
:10176000FFF722FD0028FAD1EBE7C046000200484F
:10177000F0B55F4656464D464446F0B4012383B06B
:10178000632901D9002A07D1181C03B03CBC90463C
:101790009946A246AB46F0BD161C0C1C0192009067
:1017A000FFF794FD642101F05BFE6421071C201CFF
:1017B00001F056FE184B4643994601239A46802372
:1017C000DB009B461C1C9846BD02281C311C01F006
:1017D00047FE830A434506D88005800D484502D25E
:1017E00081469A46A346013CED1B002CEDD15B4699
:1017F000802200981202013B13430361019A416960
:10180000064B013A92020B4013435246013A12042E
:10181000134343610023B7E7FF030000EF8000FCA0
:10182000F0B55F46444656464D469246F0B483B006
:101830000C1C83460191FFF749FD53466343071C87
:10184000984601209F4246DD191C381C01F098FE85
:10185000274B061E9E4247D9424601259946540011
:10186000211C381C01F08CFE0135061C44444845FF
:10187000F6D86B1E1B04994651466943731C5943A5
:10188000381C984601F0ECFD019B291C1C1AE2173C
:10189000A418544052467143381C514301F0E0FDF6
:1018A000019B181AC317C018584084421ADB8023C2
:1018B000DB009E1B8023DB011E435B461E615969D2
:1018C00053460C4A013B0A409B0213434A461343CA
:1018D0005A460020536103B03CBC90469946A2464C
:1018E000AB46F0BD4646E2E7002301259946C3E733
:1018F000FE030000EF8000FC70B584256D004659A2
:10190000064C1206344044514659054C1B023440E3
:1019100021430A431343435170BDC046FFFFFFF804
:10192000C0C0FFF870B5862676008559074C1206B0
:101930002C4084518459064D1B02254080246405A7
:101940002C4321430A431343835170BDFFFFFFF82B
:10195000C0C0FFEF862110B549004458024B120267
:1019600023401A43425010BDFFC0FFFF10B50724AB
:101970008C408A408369A3431343836110BDC046F2
:1019800030B5072484258C408A406D004359A34319
:101990001343435130BDC04630B5072486258C40E3
:1019A0008A406D004359A3431343435130BDC046A1
:1019B000FF2238B50D1C041C0D4B01201A60FFF7E7
:1019C000DBFB6B69236080236A681B021343802260
:1019D000A350A023AA68E250EA680433E2502A69BF
:1019E000DD33FF33E2502A68C93BFF3BE25038BD8C
:1019F00000050140002A05D0054A283311409B000C
:101A000019507047034A283311409B001950F8E7DA
:101A100000001F071F07000080228021835809064D
:101A20000B43F0B58350C0268024802000250C4F46
:101A3000B602A40540057B599958314204D10435BA
:101A4000082DF8D1F0BDC04699582142FBD09958D5
:101A50000142F4D0C04699580142FBD1EFE7C0469D
:101A6000BC76001010B5032900D90439A0230F2437
:101A70005B00C258A243C250C2581143C15010BDAE
:101A8000A023C2589C46304BF0B51A40141C1F27A7
:101A90004A792E4D5207520D22430C79BA43E4067F
:101AA000E40E2243644602510259294E2A40141C76
:101AB000CA795207520922438C793240E406E40A7B
:101AC000224364460251043402591A404B7A5B07A0
:101AD0005B0D13430A7ABB43D206D20E1343035164
:101AE00003598A7A1D40CB7AD2065B075B092B43E8
:101AF0003340D20A1343035180230A69C250CA6893
:101B00003833C250CB781D07DF069C065B06DA0F20
:101B10004B88FF0F9B059E090B7880215B075B0FAD
:101B20003343F82676008351835909063F070B4358
:101B3000AD0F3B43AD06E40F2B4364072343191C51
:101B400093070B438351F0BDFFF8FFFFFFFFFFF842
:101B5000FFFFE0FF802210B503248358A3431943FD
:101B6000815010BD002907D0012900D0704784237F
:101B7000C2581143C150F9E78022012381580B4319
:101B80008350F3E7274BF0B54646984684224F46EC
:101B900044468C469958244BC0B41940A15023495F
:101BA00003278C58224E23408B5063461B78B14646
:101BB0001F403D1C6C1EA5414446A4581B073440E1
:101BC00046469B0F1B02ED021C432C43B4504E466D
:101BD0008C58264033432B438B506246154B52683A
:101BE0001343802292008350634601229B68134373
:101BF000812292008350022F0ED084238020094A34
:101C0000C004D1580143D1500849CA580243CA50B0
:101C10000CBC90469946F0BD8021835849020B4385
:101C20008350EAE700040348FFFFFFFB0008034876
:101C3000FFFCFFFF0080800070B5012488258C40E8
:101C40004359A343147B8C4023434351537B5CB2E1
:101C5000002C0CDB012921D0002917D01C1C0023EB
:101C600064B29C40B026231C85592B438351C82461
:101C70005568035980312B43035108349568035943
:101C800089002B43035113680B5070BDB0241F25EE
:101C90000359AB430351547B0023E1E7B024034BCA
:101CA00005592B400351547B0823D9E7FFE0FFFF80
:101CB0000C4A08B5031C106800280FD00321033319
:101CC0008B430949C3188B4201D2136008BD01F050
:101CD00067FD0C23036001204042F7E703481060D2
:101CE000ECE7C0466C070020FC3F0020880900207C
:101CF0007047C04608B543685B68984708BDC04652
:101D000070B5031C44682920205C002801D0042001
:101D100070BD9E680230357EEDB2002DF8D10029ED
:101D200020D00130002AF3D0B26001223160327637
:101D3000F5602A32A25C1B68002A15D080218C2213
:101D40000902520099508421802049005A58C00548
:101D500002435A502D22A15C802252028A40002068
:101D60009A66D5E70320D3E780211A6C89010A43DC
:101D70001A64EFE7F8B54468031C2A20205C0028A9
:101D800001D00420F8BD9E680230757EEDB2002DB2
:101D9000F8D1002913D00130002AF3D00127716057
:101DA0002C21326177767561615C002909D1C021EF
:101DB0001A680902136C00200B431364E2E7032046
:101DC000E0E780248F4016301D68E401FF302C507E
:101DD00018687C1EBA4200D2541E1D1C221CFFF73C
:101DE000B9FD8622C020296852008B58C0050343E4
:101DF0008B500020C6E7C046F8B58468051CE36830
:101E0000A26893421DD22B22416800688A5C002A96
:101E10003BD08A268022760081595201171C11423C
:101E200003D00DE0A2689A420AD92268D15CFFF77C
:101E300057FC2868E36882590133E3603A42F1D0E5
:101E4000F8BD8A2302685B00D3581B05F8D52B2305
:101E50004068C35C002B13D08421490055580F4BB8
:101E60002B4053507F21936B8B43DBB2802BFAD0F6
:101E70000023237623608368002BE1D09847DFE7B7
:101E8000116C074B0B401364ECE72268D15CFFF741
:101E900027FCE3680133E360D2E7C046FFFFFFBFE2
:101EA000FFDFFFFFF0B547462C2380B44268071CD4
:101EB000D35C8568002B2FD08A2149006B692A6981
:101EC00000688846082601E0934211D041464158F7
:101ED0000E421CD19A42F7D96A68D418FFF718FC51
:101EE00020706B692A6901336B6138689342EDD1C8
:101EF000002386226B76520081581D4B0B40835085
:101F00007B68DB68002B04D098476B692A69934291
:101F100014D304BC9046F0BD6B692A6993421AD36E
:101F2000F7D100233A686B76116C124B0B401364A7
:101F30007B68DB68002BECD09847EAE7D31A2C22A9
:101F400003CF0124895C8C40621EA34200D25A1E3A
:101F5000FFF700FDDDE76A680068D418FFF7D8FBDB
:101F600020706B692A6901336B619342D1D1D8E744
:101F7000FFFFFF9FFF3FFFFF70B590242F4EE4054A
:101F8000301C07212E4AFFF7B5F8201C2D490122ED
:101F9000FFF762FB072206210225E369201C934319
:101FA0000B43E361A36A013993430B43A362236BA1
:101FB0000B3193432B432363033A0123FFF79CFC2C
:101FC000201C002104220023FFF7ACFC0F22236C0D
:101FD000301C93431D43256400211B4AFFF78AF8F8
:101FE000201C10210022FFF7C1FC201C102102221E
:101FF000FFF7C6FC201C10210122FFF7CDFC201C9E
:1020000013210122FFF7C8FCC221C0200F4A89001A
:10201000535800061B021B0A0343535080231B0125
:1020200013600B4B50580340C0200004034353502F
:102030008023DB001360002070BDC0460002044016
:10204000F4760010107700100877001000E100E02F
:10205000FFFF00FF08B50248FFF7CEFE08BDC046EF
:102060004805002008B50248FFF71CFF08BDC04620
:1020700048050020F8B52623C35C0025002B03D1BA
:102080002133C65C002E01D0281CF8BD0127041C9A
:10209000006900F0EFFB391C2369051C9A68237E58
:1020A00060699940D160E169FFF72EF9638C60693E
:1020B000E26843632369C6639B681A612523E35C76
:1020C000002B0AD1022326220361013BA354023ACA
:1020D000A25C002AD8D0C360D6E720230021E25CAE
:1020E000FFF72AF9A4236069C2581743C750E9E7EC
:1020F0002622825C031C0120002A07D021229A5C40
:102100000020002A02D15B690132DA607047C046C4
:10211000F0B544465F4656464D46A049F0B4A04C43
:102120000A682368013283B00A60002B04D09A69E0
:10213000012A08D9013A9A6103B03CBC90469946FD
:10214000A246AB46F0BD00229A61964A934606E04D
:102150005A7B012A00D1A1E09A69002AECD1202201
:102160009A5C002A72D1197B0029F1D00129E3D1B0
:10217000597B0129F0D158698A4DC1000F18BF0061
:10218000EE1975680191A846002D00D1DFE0854960
:10219000C959002900D1FBE029608249C9594D6025
:1021A0008049B569C959AC46884645468969614444
:1021B000A9617C4972600D1CCA512768AC46DA6976
:1021C0009A61C20001921218920062449669002F2F
:1021D00000D1D3E022689046BA69B61A002E08DD15
:1021E0003A68002A00D188E0171CBA69B61A002E96
:1021F000F6DC7A689146002A00D18DE0019A4D46BE
:10220000121892009446674A664962442A609246D0
:1022100055606546634A57515246624D7A60AC46F6
:10222000019A12189200885862448169711891616C
:102230008269511A81614246226018699B689847F9
:102240002768002F00D177E73B1C85E7586955497F
:10225000C200121892008E187768BC46002F3ED03C
:102260005758002F53D065462F6057587D608D58C2
:10227000AC46AD692F1CB569A84665464744AF61B9
:1022800000278F5077601F1C00225A730123834060
:102290001A1C45490B6893430B60D2E75869C2008A
:1022A00012185846920086187068002841D05D4682
:1022B00057590760002F69D05D4657597860AF586D
:1022C000B569B869AC466044B861584671608150E0
:1022D000022218695A739B6898472768B1E75758D4
:1022E0002760002FD0D065467D60BD69B669A846DD
:1022F00065464644BE615550C6E72A49019A8C4658
:1023000012189200624457603A60966193E7624601
:10231000176077602768B7E74546019A2149121888
:1023200092008C468D50454662446A6090460D1C72
:1023300075E75946515821600029C9D08D69B769A0
:10234000AC46674448608F6159465050C0E7154A13
:10235000D259002A10D0556095691249A946B5692D
:102360002260AC46E1444D4695614546CD51DD695C
:10237000171C9D61B6692DE7DA699A610949019ACE
:102380008C46121892006244226056E777609FE7FD
:10239000296027687160034D10E7C0469C07002044
:1023A000A4070020E8070020A0070020037870B5EC
:1023B000002B18D10D4A0E4D1360C0260D4A0E4C4D
:1023C0006A600722216A36060902090A314321623E
:1023D000AB602A60226A1202120A32432262074A62
:1023E000136001330370002070BDC046A4070020B5
:1023F00010E000E0FF7C000000ED00E0A0070020FE
:10240000014B18687047C0469C07002070B5057FD7
:1024100082B00223002D02D0181C02B070BD0268E9
:102420008A33041CD05800F013FA002802D0257714
:102430000123F1E72368A068996CFEF7ABFF2368DE
:10244000A0685988FFF7D4F82368A0689A8800210B
:10245000FFF7D0F823680121DA88A068FFF7CAF8EF
:10246000062123689A6CD278114200D067E144219A
:10247000B4250626A068595C425949003140B24350
:102480000A43425121696268116161691161196CE5
:10249000FFF7CCF82368A068DA690121FFF778F824
:1024A0002368A0681A6A0221FFF772F823680321E3
:1024B0005A6AA068FFF76CF828232268D15C131CC5
:1024C000002900D034E12A22995C002900D028E1BB
:1024D0002C22995C002900D01EE12D22995C002954
:1024E00000D014E12E22995C002900D00AE12F22AD
:1024F000995C002900D0FAE03122995C002900D0D3
:10250000EAE037229A5C032A00D11EE1A0689A8E85
:10251000002A08D0196A5A6AFFF700F8A068FEF787
:10252000D9FF2368A0685A7C0021FFF769F8236867
:10253000A0689A7C0221FFF763F82368A068DA7C20
:102540000321FFF75DF82368A0681A7D0421FFF7D7
:1025500057F82368A0685A7D0521FFF751F82368D2
:10256000A0689A7D0121FFF74BF82368A068DA7D07
:102570000821FFF745F82368A0681A7E0921FFF7B4
:102580003FF82368A0685A7E0A21FFF739F82268CD
:10259000137A002B05D0A4210123A06845582B43B2
:1025A0004350537A002B05D0A4210423A06845583A
:1025B0002B434350937A002B05D0A4210823A06815
:1025C00045582B434350D37A002B05D0A421102328
:1025D000A06845582B434350137B002B05D0A42102
:1025E0002023A06845582B434350537B002B05D034
:1025F000A4210223A06845582B434350937B002B12
:1026000006D0A4218025A0686D0043582B43435079
:10261000D37B002B06D0A4218025A068AD004358B1
:102620002B434350137C002B06D0A4218025A068A7
:10263000ED0043582B4343504C23D35C002B43D134
:102640005C23D35C002B37D16C23D35C002B2BD1C4
:102650007C23D35C002B08D08023D0580433D15C7A
:102660000433D258FEF746FD22688C23D3581968EC
:10267000936C1B7B1B071B0FD94021620121217723
:1026800010780023002800D1C6E60D1C637B60682B
:102690009D402823C560D35C002B01D1A368D9607D
:1026A000022323770023B7E67423106FD15C926F67
:1026B000FEF720FD2268CBE76423106ED15C926E9A
:1026C000FEF718FD2268BFE75423106DD15C926DB0
:1026D000FEF710FD2268B3E7332001329A5C1B5CE1
:1026E0000093A0680323FEF7AFFE236809E7A06804
:1026F000FEF798FE30232268A068D15CFEF79CFEAE
:102700002368F9E6A068FEF7C7FE2368EFE6A06835
:10271000FEF7CCFE2368E5E6A068FEF7D1FE23684D
:10272000DBE601329A5CA068FEF76CFE2368CFE618
:102730002922A0689A5CFEF751FE2368C3E6D96B94
:102740006068FEF743FE236891E63922995C013AFE
:102750009A5CA068FEF7C4FE36222368A0689A5CE3
:10276000002A00D1D3E6F021426949030A434261BD
:10277000CDE6C046022110B5037F021C8B43012029
:10278000012B00D010BD1C1C517B50688C402821AF
:10279000C4601068415C002901D19168CB600223BC
:1027A00000201377EEE7C046027F0123002A06D0FF
:1027B0008268136101331361013303770023181C0E
:1027C0007047C046F0B50278437851B2002922DB49
:1027D0001D4C0325A446FF24C026D2B2890815400B
:1027E000ED0089006144A446AC40B6008F59A74370
:1027F0009C0163461C40231CAB403B438B518378B8
:10280000002B06D01F231A401E3B93401A1C0E4B70
:102810001A600020F0BD03240F21D2B211402240E3
:10282000FC34251C0948D2008446954008398908A3
:1028300089006144C8699B01A84323409340021C5E
:102840001A43CA61E5E7C04600E100E000ED00E0A0
:1028500010B5437B002B0AD1041C017B8068FEF776
:1028600081FD8022A3685200DA6001236373002097
:1028700010BDC04610B5437B002B0AD1041C017B60
:102880008068FEF729FD8022A3685200DA600123E8
:102890006373002010BDC046F8B54F464646C0B42D
:1028A000037E022B04D0181C0CBC90469946F8BD40
:1028B000041CC068A168FFF77BF8802398467F3B23
:1028C000251C0026994600272B6803CBFFF7D8F874
:1028D0002B6803211868FFF73DF92B681B7A002B42
:1028E0000AD14346E1684846CA58331C1033984021
:1028F000031C134342468B50F1B22069FFF732F9B3
:1029000008CD5F72012E15D1802023690C4A196C05
:1029100000021140014319641A6C0A4902431A6407
:102920001A6C0A4002431A64637E002B04D1002310
:102930002376B8E70126C7E7E068FFF76DF8F6E70A
:10294000F07FFFFFFFF3FFFF10B5041C017B021DAA
:102950000068FEF7CFFB2068217B627BFEF76EFEEE
:10296000002010BD7047C0460378002B01D1013311
:10297000037000207047C04630B585B001A8021C26
:10298000034B32CB32C2FEF781FC05B030BDC046EE
:1029900048780010436810B51A78002A07D10268F9
:1029A000002A02D0041C9047636801221A7000209C
:1029B00010BDC046F8B546464F46C0B4067E022E4E
:1029C00004D0301C0CBC90469946F8BD051CC0686C
:1029D000FFF762FFEB68061CD868AB680022196835
:1029E0000023FFF707F8EB686968D868FFF7CAF8B3
:1029F000C0235B009846803BFF3B002799462A682E
:102A0000BB009C58617CA0682268FFF715F9A021E3
:102A100089008C46236862689B7812681B07A1684E
:102A20009B0E63445A50EA68237CD2689B00D318FB
:102A3000424648469958627C9040021C0A434146EF
:102A4000E0685A50002803D0FFF7A4FF0643F6B20F
:102A50000137032FD3D16B681B7A1B072FD5296948
:102A600000292CD00A684B68D4B261B2002938DB47
:102A7000274817408446FF22C0208908FFB2FF0084
:102A8000890061449446BA4080000C589B019443ED
:102A9000221C64462340BB401F1C17430F50EB68A9
:102AA000697ED868FEF7DEFF2B691B681A0606D41C
:102AB0001F2213401E3A9A40131C154A13606B697B
:102AC000002B00D09847AB7E002B08D081228020BD
:102AD000EB689200D96880008B5803438B502E76A8
:102AE0006FE70C4A0F209446FF2220402740141C19
:102AF000FF00BC400838800880006044C169A143E1
:102B00000C1C99010A40BA40231C1343C361C6E759
:102B100000E100E000ED00E008B51948FFF724FFF0
:102B2000002800D008BD1748FFF740FC0028F9D165
:102B30001548FFF76BFC0028F4D11448FFF79AFA08
:102B40000028EFD11248FFF73DFE0028EAD11148D6
:102B5000FFF7D0F80028E5D10F48FFF7F5FE002871
:102B6000E0D10E48FFF786FA0028DBD10C48FFF7CA
:102B700021FF0028D6D10B48FFF7E6FED2E7C0467A
:102B8000AC070020A8070020A40500207C05002039
:102B9000E477001048050020387800105405002024
:102BA0002C0600202878001038B5051CFFF728FCFB
:102BB000041CFFF725FC001B8542FAD838BDC0462F
:102BC000174B68229C46604443001818C000091A3D
:102BD00014484A430368D2139C46134B10B559431B
:102BE0006244C913114C89180260114BA14210DDD7
:102BF000211C1A6802601A600E4A9068036B013348
:102C00009BB25943C913591A53681022C1631A6100
:102C100010BD0029EFDA1A6800210260EBE7C04618
:102C200055FAFFFFCC070020BE180000B87E000058
:102C3000C8070020A40500207047C046027838B5B8
:102C4000041C0D1C072A00D186E0062A21D0022A86
:102C500027D00B2A3AD0D12A4DD0D22A00D19AE0DF
:102C6000002A00D1C2E00D2A00D1DEE00E2A00D1F8
:102C7000AEE00F2A00D1F4E0102A00D1AFE0112A13
:102C800000D1F5E0122A03D17D4B9D4200D969E0C5
:102C900038BD7C4B1A887C4B9A42F9D907230370C4
:102CA000F6E77A4A9142F3D9A23A9342F0D9784BA7
:102CB0001A68197B80235B028B405360754B1A683E
:102CC000197B01238B405360062324E06F4A914215
:102CD000DED9A23A9342DBD96D4B1A68197B802367
:102CE0005B028B4053606B4B1A68197B01238B404E
:102CF00053600A230FE0654B9942C9D9644B1968A8
:102D00001A7B0123181C9040624A48601168127BAC
:102D100093404B60D223604823708268136B013369
:102D20009BB2D363102243681A615C4B5C4A5969B9
:102D30000A40A8215A615A6909040A43A8215A6124
:102D40005A690906520152095A615A690A435A617D
:102D5000FFF710FD227895E7524B1A88524B9A42A2
:102D600000D995E74D4B4E4A59694B480A4080219E
:102D70005A615A6909040A4380215A615A6909064D
:102D8000520152095A615A690A435A61FFF70CFD10
:102D9000092323707CE7454B994200D978E73F4BE4
:102DA0003F4A59693C480A4080215A615A690904DE
:102DB0000A4380215A615A690906520152095A612F
:102DC0005A690A435A61FFF7EFFC0C2323705FE74F
:102DD0002B4B994200D85BE70F23037058E7284B31
:102DE000994200D854E71123037051E7284B2A4831
:102DF0001A68197B80235B028B405360274B284A5B
:102E000059690A4080215A615A6909040A4380219C
:102E10005A615A690906520152095A615A690A43AC
:102E20005A61FFF7C1FC22782CE7214A8A18282131
:102E300092B2FF318A4200D92AE7BA225200934265
:102E400000D825E7124B1A68197B80235B028B4060
:102E50005360104B1A68197B01238B4053600E237B
:102E600059E7074B994200D812E7102303700FE788
:102E7000034B994200D80BE71223037072E7C04658
:102E800049030000120900203F0300001602000061
:102E90003878001028780010A405002000000440B5
:102EA000FFFF07FF0C090020D707000015020000F4
:102EB000E9FDFFFF38B50378072B4ED0002B08D172
:102EC00080218A4A09021160894A1360894A136085
:102ED00038BD991F012917D90A2B15D0D22B00D143
:102EE000AAE00E2B00D187E00F2B00D1CBE0101C05
:102EF000102B00D1E3E0112B00D1F3E0122BE7D12E
:102F00007D49FFF75DFEE3E77C49784B8C466821FD
:102F10006244500082181B88D2009B1A5943744A9D
:102F2000C9131068734C0818754910604B437549F4
:102F3000DB131B188B4259DD0B1C206810602060CE
:102F400071498868026B013292B25343DB13D31A82
:102F50001022C3634B681A61BAE78B0059184B0102
:102F6000C9186A4B6148591A694B4B430168DB1316
:102F70008C468021634409028B4234DC65498B42D4
:102F800058DC80239B0103605C498C4662445000FE
:102F9000682182185648D2009A1A036851439C4609
:102FA000574BC9135A436144D213564B5218016010
:102FB0009A4211DD1A1C4F4C216801602160524970
:102FC0008868036B01339BB25A43D2139A1AC263C7
:102FD00010224B681A617BE7464C002AEEDA216822
:102FE00000220160EAE701600B1CCDE7002BA6DAA6
:102FF000206800231060A2E740493C4B8C466244A5
:1030000051008A1868211B883948D2009A1A03682F
:1030100051439C463A4BC91353436144DB13394A2D
:103020005B180160334C93424EDD131C2168016034
:10303000216085E70360A7E7374B38499C46624427
:1030400053009A18D2008B1A3549364A08685A43F9
:1030500084465800C3182B48D213624484469B030D
:10306000DB139B1863440A602F48634504DD634605
:1030700002680A60026063E7002BFBDA0268002343
:103080000A6002605CE71D4B68219C466244530065
:103090009A18264BD200981A4143154DC9132B6834
:1030A000144CCA18164B17494343DB139B182A606C
:1030B0008B4210DD0B1C22682A60226040E78021D1
:1030C000C901FFF77DFD03E7002BB1DA216800237A
:1030D0000160216034E7002BEFDA226800232A60C8
:1030E00022602DE71249FFF76BFDF1E6C0060020D4
:1030F000CC070020C80700209919000055FAFFFFEF
:10310000BE180000B87E0000A40500209919020036
:103110000A170000FF1F00006FF9FFFF0080FFFF8C
:10312000C40700208F020000C00700206666000070
:103130006626000070B51A4D1A4CAA681A4E136B19
:10314000281C01339BB2D36310226B681A61A8223A
:10315000636912043340636163691343A8226361A6
:10316000636912065B015B09636163691343636111
:10317000FFF700FB8022636912041E4066616369E9
:10318000281C134380226361636912065B015B099B
:103190006361636913436361FFF706FB70BDC0465B
:1031A000A405002000000440FFFF07FFF0B55F46C4
:1031B00056464D464446F0B483B0FFF7ADFC0028B8
:1031C00000D0FEE7FA208000FFF7EEFCFFF7B2FF29
:1031D0001648FEF78DFF164B1649181C01229B4618
:1031E000FEF7C8FD144B154C9A46154B154F9946E2
:1031F000154B164E9846164D4B461A88434639884D
:103200001B8800913188201C0191514600F070FF0D
:103210002B78002BF0D0201C00F08CFF211C021C0E
:103220005846FEF76DFD00232B70E5E77C05002076
:103230004805002080090020947800101C09002017
:103240001609002008090020120900200A090020A0
:10325000C4060020F0B54F464646C0B4634B83B069
:103260001B88634C022B00D1AEE0D12B00D176E05D
:103270000B2B00D18AE0002B00D079E02278002AC5
:1032800000D073E0C02189008C465A4B201C9A68FC
:103290001B689B781B079B0E63449D58564BAEB230
:1032A0009A681B68311C9B782D041B079B0E634496
:1032B0009F58524BBFB29A681B682D0C9B781B0716
:1032C0009B0E63449B586A46D3809846D3889946A0
:1032D0001A1C3B1CFFF7B0FC201C311C3B1C4A464F
:1032E000FFF7ACFC201C311C4A46FFF7E3FD2278B7
:1032F000434B80201A808122424B9200DB68800081
:10330000D96880268B58404C03438B503F49404836
:103310000B6802689C4643461B041B0C9A182388C2
:10332000654401339BB20D60026023803602B342D4
:1033300033D0384A3849138801339BB213808B420B
:1033400008D136490B8801330B800121344B1970A9
:103350000023138003B00CBC90469946F0BD227840
:10336000D22A00D18EE70C2A00D18BE7237089E79F
:103370000D2B00D086E72278111C0D39052900D8C5
:1033800080E7092A00D17DE723707BE722780A3A9B
:10339000012A00D876E7237074E7224BED0B1D80DD
:1033A000D30B214A9BB2934219D91D1C1F4ADC350D
:1033B00015801F4A944663449BB21E4A1380002323
:1033C0000B6003602380B4E72278022A00D159E71A
:1033D000911F012900D855E7092AD5D152E7134A90
:1033E0001380154AD31A9BB2E7E7C046180900209C
:1033F000D0070020680600207C060020A0060020E0
:103400000A0900202C060020D2070020D407002043
:10341000DC070020D807002050C300001609002058
:10342000C406002012090020860600000C090020B6
:1034300055FAFFFF080900208706000010B5054C6B
:103440000122211C0448FEF795FC2278034B1A80C8
:1034500010BDC04680090020480500201809002042
:10346000002243088B4274D303098B425FD3030AC3
:103470008B4244D3030B8B4228D3030C8B420DD3D6
:10348000FF22090212BA030C8B4202D31212090264
:1034900065D0030B8B4219D300E0090AC30B8B42A2
:1034A00001D3CB03C01A5241830B8B4201D38B0350
:1034B000C01A5241430B8B4201D34B03C01A5241F5
:1034C000030B8B4201D30B03C01A5241C30A8B4238
:1034D00001D3CB02C01A5241830A8B4201D38B0223
:1034E000C01A5241430A8B4201D34B02C01A5241C7
:1034F000030A8B4201D30B02C01A5241CDD2C30939
:103500008B4201D3CB01C01A524183098B4201D3B4
:103510008B01C01A524143098B4201D34B01C01A9F
:10352000524103098B4201D30B01C01A5241C30817
:103530008B4201D3CB00C01A524183088B4201D386
:103540008B00C01A524143088B4201D34B00C01A72
:103550005241411A00D20146524110467047FFE7DE
:1035600001B5002000F0FCF802BDC0460029F7D0EC
:1035700003B5FFF775FF0EBC4243891A1847C046D2
:1035800003460B437FD4002243088B4274D30309C4
:103590008B425FD3030A8B4244D3030B8B4228D365
:1035A000030C8B420DD3FF22090212BA030C8B428B
:1035B00002D31212090265D0030B8B4219D300E02B
:1035C000090AC30B8B4201D3CB03C01A5241830BB0
:1035D0008B4201D38B03C01A5241430B8B4201D360
:1035E0004B03C01A5241030B8B4201D30B03C01A89
:1035F0005241C30A8B4201D3CB02C01A5241830A03
:103600008B4201D38B02C01A5241430A8B4201D331
:103610004B02C01A5241030A8B4201D30B02C01A5B
:103620005241CDD2C3098B4201D3CB01C01A5241C2
:1036300083098B4201D38B01C01A524143098B424B
:1036400001D34B01C01A524103098B4201D30B0134
:10365000C01A5241C3088B4201D3CB00C01A524159
:1036600083088B4201D38B00C01A524143088B421E
:1036700001D34B00C01A5241411A00D201465241B7
:10368000104670475DE0CA0F00D04942031000D3D6
:103690004042534000229C4603098B422DD3030A2B
:1036A0008B4212D3FC22890112BA030A8B420CD33B
:1036B000890192118B4208D3890192118B4204D364
:1036C00089013AD0921100E08909C3098B4201D3E4
:1036D000CB01C01A524183098B4201D38B01C01A1E
:1036E000524143098B4201D34B01C01A5241030995
:1036F0008B4201D30B01C01A5241C3088B4201D344
:10370000CB00C01A524183088B4201D38B00C01AF0
:103710005241D9D243088B4201D34B00C01A5241C7
:10372000411A00D20146634652415B10104601D354
:103730004042002B00D54942704763465B1000D3DE
:10374000404201B5002000F00BF802BD0029F8D07E
:1037500003B5FFF715FF0EBC4243891A1847C04650
:103760007047C0461C2101231B04984201D3000C62
:1037700010391B0A984201D3000A08391B099842E4
:1037800001D30009043902A2105C40187047C046FA
:10379000040302020101010100000000000000001A
:1037A000014B18687047C046280700200E4B70B5C3
:1037B00000251E1C0D4CE41AA410A54204D0AB0039
:1037C000F35898470135F8E7FEF792FA084B0025C1
:1037D0001E1C084CE41AA410A54204D0AB00F358F8
:1037E00098470135F8E770BD6407002064070020A2
:1037F0006407002064070020F0B58BB0141C1D1E68
:10380000129906DA802424062B191D1C141C2D2362
:1038100000E000230B702023149E03229E43462EBB
:1038200007D0331C453B59424B411099013ACB1804
:103830001093109B00920193139B221C029308ABE0
:10384000039309AB04932B1C00F002FD071C472EC9
:1038500002D1119BDB072CD5109BFB180793462E3A
:1038600014D13B78302B0CD1201C291C00220023C2
:1038700002F078F8002804D10123109A9B1A139AB9
:103880001360139B079A1B68D3180793201C291CED
:103890000022002302F066F8002801D0079B09935C
:1038A000099B079A934204D25A1C099230221A703B
:1038B000F6E7381C099B159ADB1B13600BB0F0BDB3
:1038C000F7B52B23071C0C1C0270861C002901DA9B
:1038D0002D234C427B70092C1CDD6B46DD1D201C0A
:1038E0000A21FFF733FF013D30312970201C0A21E6
:1038F000FFF746FE041E092CF1DC013D30342C702C
:103900006B460733301CAB4209D92B780135337035
:103910000136F5E73023E4183370B01C7470C01B17
:10392000FEBD0000F0B593B00C1C0892189E0993E0
:10393000051C01F08DFA0368181C0B9300F0FAFBCC
:1039400000230722109333680C90073393431A1C0B
:10395000186859680832277E3260A064E16400F07C
:103960009FFB012818D1A06CE16C0022002301F01C
:10397000FFFF002803D0231C2D2243331A70B74BBE
:103980000A93472F01D9B64B0A9303232268236178
:1039900001339A43226012E0A06CE16C00F080FBDE
:1039A000266800280DD1AF4B0A93472F01D9AE4BA3
:1039B0000A930323311C23610133994321600026BC
:1039C00080E080216068C900431C01D1062309E022
:1039D000A26CE36C672F01D0472F04D1002800D0E0
:1039E000C1E10123636063683143009323232160B5
:1039F0000191002106AA9B1802930FAB039310AB11
:103A000005930497A26CE36C0691281CFFF7F4FE63
:103A100020233A1C0A909A43472A07D10F9BDA1CAD
:103A200002DB626893422DDD023FFFB20F99652FE2
:103A300012D8201C01393A1C50300F91FFF740FF7B
:103A4000109A061C83182361012A02DC2268D2071F
:103A50002ED5013323612BE0662F14D16368002932
:103A600008DD2161002B02D12268D2071DD5013368
:103A7000CB1811E0002B03D101222168114213D091
:103A80009A1C11E067270F9B1098834206DB22687F
:103A90002361D20709D50133236106E00122002BFF
:103AA00001DC0221CA1A8218226100260F9BA3653D
:103AB000232306AA9B181B78002B03D0231C2D223E
:103AC00043331A70099B281C0093211C089B11AAE0
:103AD00000F060F9431C02D10120404257E1226806
:103AE000530504D4281C08990A9A236917E1652F05
:103AF00000D8D5E0A06CE16C0022002301F032FF79
:103B000000282BD00123281C0899584A099EB04749
:103B1000431CE1D00F9B109A934207DB2368DB071D
:103B200004D423689B0700D51BE114E1099E281CDF
:103B300008990B9A0C9BB0470026431CCCD0109BD5
:103B4000013B9E42EDDA221C0123281C08991A32FF
:103B5000099FB847431CBFD00136F0E70F9B002BED
:103B60002BDC0123281C0899404A099EB047431CBE
:103B7000B2D00F9B002B05D1109B002B02D12368E4
:103B8000DB07CED5099E281C08990B9A0C9BB047E1
:103B90000026431CA0D00F9B281C5B4208999E4224
:103BA00008DA221C01231A32099FB847431C93D01C
:103BB0000136F0E70A9A109BB1E0109BA66D9E4279
:103BC00000DD1E1C002E01DC002314E0331C281C29
:103BD00008990A9A099FB847431CF5D17CE7221C33
:103BE0000123281C08991A32099FB847431C00D1A9
:103BF00072E70D9B01330D93F343A26DDB170D9913
:103C00003340D31A9942EADB0A9B9E180F9B109A05
:103C100093420EDB2368DB070BD4109B0A9AD7185C
:103C20000F9ABF1B9B1A9F4200DD1F1C002F09DC4F
:103C300011E00C9B281C08990B9A099FB847431C5C
:103C4000EBD149E7321C3B1C281C0899099EB04760
:103C5000431C00D140E7002316E0C046C6780010A0
:103C6000CA780010CE780010D2780010D6780010F4
:103C7000221C0123281C08991A32099EB047431CB4
:103C800000D129E70A9B01330A930F9A109B9A1AD5
:103C9000FB43DB173B40D31A0A9A9A42E8DB40E722
:103CA000109B281C0899012B02DC01231A423CD0EE
:103CB00001230A9A099FB847431C00D10CE70C9BCB
:103CC000281C08990B9A099FB847431C00D103E7A9
:103CD000A06CE16C0023002201F044FE00230028C8
:103CE00012D10A9A109B0132013B281C08991DE051
:103CF000221C0123281C08991A32099FB847431C2B
:103D000000D1E9E60A9B01330A93109B0A9A013B12
:103D10009A42EDDB221C281C331C08995032099E64
:103D2000B047431C00D0FCE6D6E60A9A099FB84784
:103D3000431CEFD1D0E6221C0123281C089919321C
:103D4000099FB847431C00D1C6E60136E368119AC3
:103D50009B1A9E42EFDB119BE068984217DA181C11
:103D600015E00026F2E73143216001912321009004
:103D700006A8091802910FA9039110A90591002125
:103D800004970691281CFFF737FD0A9046E613B00A
:103D9000F0BDC046F7B5171C01930A698B68009007
:103DA0000C1C934200DA131C221C3B604332127835
:103DB000002A01D001333B6023689B0602D53B6893
:103DC00002333B60062523681D401ED0231C43336D
:103DD0001B785A1E9341226892061CD53020E118A8
:103DE0004031C870211C5A1C45310978A218403254
:103DF0000233D1700FE0221C01230098019919327F
:103E0000089EB047431C0ED00135E3683A689B1A00
:103E10009D42F0DBDAE7221C009801994332089DAD
:103E2000A847431C02D10120404220E0062320681D
:103E3000E1683A6803400025042B03D18D1AEB4357
:103E4000DB171D40A3682269934201DD9B1AED1820
:103E50000027AF420ADA221C0123009801991A3286
:103E6000089EB047431CDED00137F2E70020FEBDBC
:103E7000F0B58BB006920A1C43320793059004926A
:103E80000A7E0C1C109B6E2A00D1A8E011D8632A70
:103E900022D009D8002A00D1B2E0582A00D0C2E0CE
:103EA00045310A707C4A4FE0642A1DD0692A1BD034
:103EB000B9E0732A00D1A7E009D86F2A29D0702A67
:103EC00000D0B0E0202209680A43226037E0752A5A
:103ED0001FD0782A33D0A6E00D1C1A684235111D78
:103EE000196013682B70A1E021681A68080603D5D1
:103EF000111D1960166805E04906F9D5111D1960F4
:103F00000023D65E002E3BDA2D23049A76421370EE
:103F100036E021681A68080603D5111D1960166875
:103F200005E04906F9D5111D19601668B6B25A4B5D
:103F3000227E03930A276F2A1DD108271BE0221C2B
:103F4000782145321170554A19680392081D22687C
:103F500018600E68100602D4500600D5B6B2D3071A
:103F600002D520231A4322601027002E03D12023DC
:103F700022689A432260231C002243331A7002E015
:103F80000A27454B03936368A360002B03DB0422DD
:103F9000216891432160002E02D1049D002B0ED098
:103FA000049D301C391CFFF7E1FA039B013D5B5C6B
:103FB000301C2B70391CFFF753FA061EF1D1082F65
:103FC00009D12368DB0706D563682269934202DCC6
:103FD0003023013D2B70049B5B1B23612BE00968A0
:103FE0001A68080607D4490605D5111D196013681B
:103FF000A28A1A8004E0111D1960136862691A60B0
:104000000023049D236116E01A68111D19601568CC
:104010000021281C626800F029FF002801D0401B05
:104020006060636803E0251C42352A700123236128
:104030000023049A1370079B05980093211C069B8C
:1040400009AAFFF7A7FE431C02D10120404221E04C
:104050002A1C236905980699079DA847431CF4D09C
:1040600023689B0705D4099BE068984212DA181C64
:1040700010E00025E368099A9B1A9D42F3DA221C9E
:104080000123059806991932079EB047431CDCD0DE
:104090000135EFE70BB0F0BDD8780010E9780010DB
:1040A00030B50C1C0223044317D080242406A142FF
:1040B00001D1002811D00A4B49004908094ACC18FF
:1040C0000423944209D9084A013B914205D9074A81
:1040D0000023914201D143424341181C30BDC046E8
:1040E0000000F0FFFFFFDF7FFFFF0F000000F07F09
:1040F0000EB410B59DB002A9029008610B4882244D
:1041000088604861012040421FABC881084804CB49
:10411000A400006801938C8101F0B4FA0023029A94
:1041200013701DB010BC08BC03B01847FFFFFF7F21
:10413000280700200023C25C0133002AFBD1581E4F
:104140007047F0B503690C6989B00026A3427CDB97
:104150000B1C013C1433A50003935B190493031C4F
:10416000143301935D19049B07911B680290591C3D
:1041700028680593FFF774F9071EB74235D0039BF3
:1041800001989C460596634604CB91B27943120C84
:104190007A4371180E0C9C46B318069302881E0CC5
:1041A000059B89B2D2180368521A190C6B461B8BF7
:1041B000CB1A11145B18191492B21B041A43049BF6
:1041C000059104C06345DED22B68002B0DD1231C62
:1041D000019A043D954203D8029A1C1C136104E025
:1041E0002A68002AF8D1013BF2E70298079901F00A
:1041F00063F8002828DB00200199039A013720CAC0
:104200000B881818ABB2C31A08682D0C000C451B9C
:104210001E14AD1928149BB22D042B4308C1049B16
:104220009342ECD2019AA300D3181A68002A0BD14A
:10423000019A043B934202D8029B1C6104E01A6875
:10424000002AF9D1013CF3E73E1C301C09B0F0BD57
:10425000F0B5161C1F1C446A9BB00890239D06965F
:104260000797002C08D1102000F0F6FD089B58623B
:10427000446084600460C460089B5B6A196800291C
:104280000BD05A68012393404A608B60089800F075
:1042900039FE0022089B5B6A1A60079B002B05DA37
:1042A00001232B607B005B08079301E000232B6058
:1042B000079CC64B221C17931A409A4219D1C44B33
:1042C000229A1360069AC34B002A02D1240300D11C
:1042D000C14B249A181C002A01D100F0B6FDD978F0
:1042E000DA1C002900D005322499181C0A6000F05D
:1042F000ACFD069E079F0022301C391C002301F0F4
:1043000031FB051E0ED00123229A1360B34B249A71
:10431000181C002A01D100F098FDB14A24990A60C6
:1043200000F093FD19AB009318AB01930898321C71
:104330003B1C01F047F861000A90490D09D0380391
:10434000A84C000B0443A848321C231C0E181695D9
:104350001CE0189B199A9E18A44B9E4209DBA44BA3
:10436000F018069BC340181CA24B9B1B9C4020438B
:1043700004E0A148069B801B8340181C03F00CF945
:104380009E4C021C0B190121013E1691101C191C98
:1043900000229B4B02F014FD9A4A9B4B02F076FAE6
:1043A0009A4A9B4B01F00CFB041C301C0D1C03F0C3
:1043B000B7F8984A984B02F069FA021C0B1C201CB3
:1043C000291C01F0FDFA041C0D1C03F073F8291CD4
:1043D00003900022201C002301F0CAFA00280DD00F
:1043E000039803F09DF8021C0B1C201C291C01F0F3
:1043F000B9FA43424341039AD31A03930123139317
:10440000039B162B11D8854ADB00D318186859680E
:10441000069A079B01F0C0FA002805D0039B013BD8
:1044200003930023139300E01390189B9E1B00231B
:104430000D93013E0E9604D50E9B5B420D93002317
:104440000E93039B002B08DB039A0E9B9446634458
:104450000E93002312920F9307E00D9B039A9B1A71
:104460000D9353420F9300231293209B0125092B98
:1044700027D8052B02DD0025043B2093209B981EA6
:10448000032823D801F054FA020E0410002300E0A0
:1044900001231093219B002B21DC01230B93099313
:1044A0001A1C1AE0002300E00123039A109394469B
:1044B000219B63440B9301330993002B12DC0123EE
:1044C00010E0002310952093013B02E0012310939C
:1044D000023B00220B9309931333219202E0219BAC
:1044E0000B930993089A546A002262600432111CEB
:1044F0001431994204D86168520001316160F6E7D5
:104500000898616800F0C6FC089B20605B6A1B6825
:104510000C93099B0E2B00D988E1002D00D185E179
:10452000069B079C14931594039B002B30DD0F22F0
:104530003A491340DB00CB185C681B680493059470
:10454000039B02271D11EB060AD514981599344BCD
:1045500015401A6A5B6A01F05BFD0690079101370E
:104560002F4C002D0DD0EB0708D504980599226833
:10457000636802F08BF90490059101376D100834DF
:10458000EFE706980799049A059B01F041FD49E081
:10459000039B02275D42002D46D0149815990F23E6
:1045A0001E4A2B40DB00D3181A685B6802F06EF9D4
:1045B0001B4C2D11002D35D0EB0704D52268636804
:1045C000013702F063F96D100834F3E70000F07F63
:1045D0000F27000003790010FA780010D678001039
:1045E000D77800100000F03F01FCFFFFEFFBFFFF5A
:1045F000120400000EFCFFFFEEFBFFFF000010FEA8
:104600000000F83F61436F63A787D23FB3C8608B58
:10461000288AC63FFB799F501344D33F107900107E
:10462000D879001006900791139B002B1ED0069C92
:10463000079D0022201C291CCE4B01F099F900286F
:1046400014D0099B002B11D00B9B002B00DCE9E060
:10465000039B291C013B1193201C0022C64B02F036
:1046600015F90137069007910B9D02E0039B099D08
:104670001193381C069B079C0493059402F050FF8D
:10468000049A059B02F002F90022BC4B01F098F954
:1046900006900791069E079F079BB94A9C18002D1C
:1046A0001CD1049805990022B64B02F089FB321CFC
:1046B000231C0490059101F06FF9002800D063E2FB
:1046C00004980599321CB04E079CB4466444231CE0
:1046D00001F04EF9002800D04CE2A3E0AB4A6B1E7B
:1046E0001099DB00D31800294ED01A685B680020AF
:1046F000A74901F08DFC321C231C02F061FB049ED3
:10470000059F0C9B069007910493391C301C02F006
:10471000D1FE041C02F004FF021C0B1C301C391CCF
:1047200002F04EFB049B303401330493013B1C70B8
:10473000069A079B061C0F1C01F01AF9002800D0EE
:1047400061E3321C3B1C00208A4902F039FB069AC7
:10475000079B01F00DF9002800D0CDE0049B0C9AD6
:104760009B1AAB425EDA069807990022824B02F050
:104770008DF80022069007917F4B301C391C02F007
:1047800085F8061C0F1CC0E718685968321C231CEA
:1047900002F07CF8049E059F0C9C0690079163191B
:1047A0000493391C301C02F085FE051C02F0B8FE93
:1047B0000B1C021C391C301C02F002FB3035049B20
:1047C00025700134061C0F1CA34224D10022069838
:1047D00007996F4B01F0F4F8021C0B1C301C391CBC
:1047E00001F0DAF8002800D086E0069A079B002046
:1047F000674902F0E5FA021C0B1C301C391C01F061
:10480000B7F800280ED0049B013B1A78302A00D05C
:10481000F9E20493F7E70022574B02F037F8061C41
:104820000F1CBEE7149B159C06930794199B002B45
:1048300000DA86E0039A0E2A00DD82E0D300534AB4
:10484000D3181E685F68219B002B14DA099B002B8C
:1048500011DC00D090E1301C391C0022494B02F0E1
:1048600015F8069A079B01F0A1F8099F3E1C002845
:1048700000D083E18CE10C9B069C079D0493321CC5
:104880003B1C201C291C01F0C3FB02F013FE069008
:1048900002F046FE321C3B1C01F0F8FF021C0B1C10
:1048A000201C291C02F08CFA0B1C0499021C06988F
:1048B000013104913030013908700C980499091ABB
:1048C000099881422ED1101C191C01F079F8321C74
:1048D0003B1C041C0D1C01F05FF8002810D1201CAB
:1048E000291C321C3B1C01F03DF8002800D18CE251
:1048F000069BDB0704D488E2119B039300E004933A
:10490000049B013B1A78392A08D10C9A9342F6D1BC
:10491000039B0133039330231370131C1A78013265
:104920001A7072E2101C191C0022134B01F0AEFF2A
:1049300000220023041C0D1C01F014F800289ED056
:1049400063E2109A002A44D0209A012A0BDC169ABE
:10495000002A02D00F4A9B1802E03623189A9B1AAD
:104960000F9D0D9C29E0099B5D1E0F9BAB4213DB45
:104970005D1B18E00000F03F0000244000001C40D8
:104980000000C0FC000014400000C07C1079001042
:104990000000E03F330400000F9B0F95EA1A00254A
:1049A000129B9B181293099B002B04DA0D9B099A0A
:1049B0009C1A002301E00D9C099B0D9A0898D218BF
:1049C0000D920E9A0121D3180E9300F03AFB061CAB
:1049D00002E00F9D0D9C109E002C0CD00E9B002B16
:1049E00009DDA34200DD231C0D9AE41AD21A0D92B0
:1049F0000E9AD31A0E930F9B002B21DD109B002BD8
:104A000018D0002D10DD311C2A1C089800F0B0FBD6
:104A1000061C0A9A311C089800F01CFB071C0A9916
:104A2000089800F06FFA0A970F9B5A1B08D0089855
:104A30000A9902E008980A990F9A00F099FB0A90E7
:104A40000898012100F0FDFA129B071C002B0ADDDB
:104A5000391C1A1C089800F08BFB209B071C0025B2
:104A6000012B1BDC03E0209B0025012B12DC002521
:104A7000069BAB420ED1079B1B03AB420AD1179B8F
:104A8000079A134206D00D9B013501330D930E9BFF
:104A900001330E93129B0120002B08D03B69033396
:104AA0009B00FB18586800F082FA2023181A0E9B0E
:104AB000C0181F23184009D001331B1A042B02DD34
:104AC0001C23181A03E0042B08D0181C1C300D9B63
:104AD00024181B180D930E9B1B180E930D9B002B77
:104AE00005DD08980A991A1C00F094FB0A900E9BA9
:104AF000002B05DD391C08981A1C00F08BFB071CE5
:104B0000139B002B1ED00A98391C00F0D5FB0028FF
:104B100018DA039B0898013B03930A9900230A22A1
:104B200000F009FA109B0A90002B00D17FE1311CA4
:104B3000002308980A2200F0FEF90B9B061C002BAC
:104B40003CDC7DE1099B002B2EDC209B022B2BDD26
:104B5000099B0B930B9B002B10D1391C0898052245
:104B600000F0E9F9071C0A98391C00F0A5FB0028A1
:104B70000EDC03E02F1C00E000273E1C219BDB43E2
:104B800003930C9B04930CE02F1C2E1C119B03938E
:104B90000C9B0C9A0133049331231370039B013354
:104BA0000393099600261AE1109B002B04D1099B60
:104BB0000B930C9D0A9CD0E0099B0B93002C05DD08
:104BC000311C0898221C00F025FB061C0996002DBC
:104BD00012D07168089800F05DF9311C041C33692B
:104BE0000C319A1C92000C3000F04BF90898211CF3
:104BF000012200F00FFB09900C9B0C9A0E930B9B6B
:104C00000A9C013BD3181093391C201CFFF799FA1A
:104C1000031C0F903033311C201C0D9300F04CFB13
:104C2000391C0B90099A089800F061FB012304934A
:104C3000C368051C002B04D1201C291C00F03CFB80
:104C400004900898291C00F05DF9049B209A1343F6
:104C500010D1069A013313420CD10D980A943928C9
:104C60003DD00B9B002B01DD0F9831300E9B0133A3
:104C700004933EE00B9B002B05DA049B0D9D0A94E8
:104C8000002B09DC1CE00B9D209B1D431ED1012342
:104C9000069A13421AD1F0E7211C0898012200F06D
:104CA000B9FA391C0A9000F007FB002803DC07D191
:104CB0000D9BDB0704D50D9B392B10D01D1C013536
:104CC0000E9B013304930E9B1D7088E00E9B5D1CB0
:104CD000049B002B10DD0D9B0A94392B06D10E9BF3
:104CE0000E9A013304933923137060E00D980495F4
:104CF00001300E9B187072E06A4634215218127807
:104D00000E9B04951A70109A93423FD0211C0A22E0
:104D10000023089800F00FF9099B041C311C089827
:104D20000A229E4205D1002300F005F9061C0990D5
:104D30000AE0002300F0FFF80999061C0A220898EF
:104D4000002300F0F8F809900E955DE7211C089803
:104D50000A22002300F0EFF8041C201C391CFFF786
:104D6000F0F934226B4630309B180D901B780B9A6B
:104D70002B700C9B0135EB1A9342E7DB131E00DC12
:104D80000123099600260C9AD3180493211C089835
:104D9000012200F03FFA391C0A9000F08DFA002839
:104DA00005DC15D10D9BDB0701D411E00493049BB6
:104DB000013B1A78392A08D10C9A9342F6D1039B09
:104DC000013303933123137009E001321A7006E0B6
:104DD000049B013B1A78302A01D10493F8E7089824
:104DE000391C00F08FF8099B002B0ED0002E05D047
:104DF0009E4203D00898311C00F084F80898099965
:104E000000F080F801E0119B039308980A9900F0E4
:104E100079F80023049A0C981370039B229A0133AB
:104E20001360249B002B10D0049A1A600DE00B9B9A
:104E3000002B00DDBDE6209B022B00DD8AE6B8E6F4
:104E4000209B022B00DD85E6B8E61BB0F0BDC04616
:104E5000004870472C07002008B5034B011C186858
:104E600000F058FB08BDC04628070020C9B28218D0
:104E7000904204D003788B4202D00130F8E7002042
:104E80007047002310B5934203D0CC5CC454013367
:104E9000F9E710BD70B5466A041C0D1C002E07D141
:104EA0001020FFF7D9FF6062466086600660C6602A
:104EB000666AF368002B09D0626AAB00D268D31827
:104EC000186800280ED002681A6017E0201C042120
:104ED000212200F0CBFA636AF060DB68002BEBD193
:104EE00000200EE001210E1CAE40721D9200201C1D
:104EF00000F0BCFA0028F3D045608660002303610F
:104F0000C36070BD70B5456A061C0C1C002D07D12E
:104F10001020FFF7A1FF7062456085600560C560E5
:104F2000002C07D0726A6368D2689B00D3181A6895
:104F300022601C6070BDF7B51E1C14239C46071C24
:104F40000C1C00200D698C44634619881B68514372
:104F50001B0C534389190E0CF31889B21E0C1B0449
:104F60005B186146013008C18C46A842ECDB002E7C
:104F70001BD0A3689D4212DB6368381C591CFFF7E5
:104F800089FF211C236901909A1C0C3192000C307E
:104F9000FFF777FF211C381CFFF7B4FF019C2B1D86
:104FA0009B00E31801355E602561201CFEBD0022D8
:104FB000031C010C914201D103041032190E01D1DE
:104FC00008321B02190F01D104321B01990F01D1C4
:104FD00002329B00101C002B03DB20205B0000D55D
:104FE000501C70470722036810B5011C1A400CD0F2
:104FF00001240020234223D10222134203D0E340A4
:10500000201C0B601CE09B0818E098B2002801D11E
:1050100010221B0CD8B2002801D108321B0A180735
:1050200001D104321B09980701D102329B08D8072D
:1050300004D45B082020002B02D00132101C0B602E
:1050400010BD10B50C1C0121FFF724FF01234461A2
:10505000036110BDF0B50B69141C126989B00D1CF9
:10506000934201DA251C0C1C2F692669AA68BB191A
:1050700069680093934200DD0131FFF70BFF011CCB
:10508000009B1431844698000B1C0818834202D2FE
:10509000002204C3FAE71435BF00EB191434B6003C
:1050A0000493A31902950693069B9C4256D223882B
:1050B0000393002B22D00E1C0027029B0193019B1F
:1050C000039D04CB059601933388079393B26B43FA
:1050D000079D120CEB183568DB192F0C039D6A43F2
:1050E000BA181F0CD219170C9BB21204134308C62E
:1050F000019A049B9A42E2D3059B5F6023681B0CD4
:10510000019321D000220D1C0B68029F03923E8860
:10511000019A9BB256432A680595120CB218039E59
:105120009219160433432B6008CF019E1B0C734366
:10513000AE88120C9B199B181A0C0392049A043522
:10514000BA42E4D8059A536004340431ACE7043819
:105150000368002B05D1009B013B0093009B002BB3
:10516000F5DC63466046009A1A6109B0F0BD0000A4
:105170000323F7B51340051C0E1C141C002B07D08D
:10518000224A013B9B009A580023FFF7D4FE061CDD
:10519000A310019337D06C6A002C07D11020FFF7C1
:1051A0005BFE6862446084600460C4606F6ABC68CF
:1051B000002C10D1281C1649FFF743FF0023B860CC
:1051C000041C036007E0019B5B1001931BD0206867
:1051D00000280FD0041C019BDB07F4D5311C221CD6
:1051E000281CFFF737FF071C311C281CFFF78AFE1D
:1051F0003E1CE8E7281C211C221CFFF72BFF002384
:1052000020600360E6E7301CFEBDC046007A001057
:1052100071020000F0B50C1C171C2369551185B0F4
:10522000EB180193013300934968A3680290009A38
:105230009A4202DD01315B00F9E70298FFF72AFE8E
:10524000021C061C00231432AB4204DA0020990031
:1052500050500133F8E7EB43DB171D40231CAD0032
:1052600055192269143392009A1894461F22174048
:1052700014D00132D21B039200221968281CB940B5
:105280000A4304C504CB0399CA409C45F5D8426043
:10529000002A07D0019B0233009303E004CB04C52E
:1052A0009C45FBD8009B0298013B3361211CFFF712
:1052B00029FE301C05B0F0BD03690A6910B59B1AC0
:1052C000041C181E12D1930014341431E218C918AA
:1052D000043A043913680868834204D083429B412E
:1052E0000120184302E0A242F2D8002010BDF0B520
:1052F000071C85B0081C0C1C111C151CFFF7DCFFDB
:10530000061E07D1381C311CFFF7C4FD012346617E
:10531000036155E000230193984204DA231C2C1CFE
:105320001D1C01230193381C6168FFF7B3FD019B2D
:1053300026692F1CC3601434B300E318021C0293C7
:105340002B69002514379B00FB180393143208CCFB
:1053500069469C4608CF0432009363468B808B8855
:105360005D19009B9BB2EB1A65460193009B2D0CC7
:10537000190C019B691A1D14131F9C466B46491991
:105380009B880D1409040B4361460B60039B9F42ED
:10539000DDD30299131C8C420BD208CC99B2491967
:1053A0000D141B0CEB181D1489B21B040B4308C20F
:1053B000EFE7043B1A68002A01D1013EF9E70661D4
:1053C00005B0F0BDF7B51D1C0121089F141CFFF7A7
:1053D00061FD2B036D00061C1B0B6D0D02D080229E
:1053E000520313430193002C18D068460094FFF732
:1053F000F9FD009C002809D02023019A191A131CDA
:105400008B40C24023437361019200E07461019CB0
:10541000B461631E9C410134346107E001A8FFF7C9
:10542000E1FD0124019B346173612030002D06D021
:105430000B4BED1835232D183D60181A0BE0094B66
:10544000C018094B3860E3189B00F3185869FFF740
:10545000AEFD6401201A099B1860301CFEBDC046D9
:10546000CDFBFFFFCEFBFFFFFFFFFF3F4A4338B5F9
:10547000111C141C00F04EF8051E03D00021221C44
:1054800000F01CFA281C38BD30B500293ED0043984
:105490000B68002B00DAC9181D4A1368141C002B76
:1054A00002D14B60116031E099420DD208680A18B0
:1054B0009A4203D11368C3180B6053684B60216094
:1054C00024E08A4203D8131C5A68002AF9D11D68C7
:1054D0005C198C420BD10968691858181960904200
:1054E00014D110685268091819605A600EE08C4295
:1054F00002D90C23036009E008680C18944203D118
:1055000014685268001908604A60596030BDC0468E
:10551000E4070020032370B5CC1C9C430834051C11
:105520000C2C01D20C2405E0002C03DA0C23002003
:105530002B6042E08C42F9D3204A1368101C191CDE
:10554000002913D00A68121B0DD40B2A02D90A6055
:105550008B181FE08B4202D15A6802601BE04A6838
:105560005A600B1C17E00B1C4968E9E7144E3368BE
:10557000002B03D1281C00F07BF93060281C211C73
:1055800000F076F9031C421CD0D00322C61C9643BF
:1055900086420AD11C60181C07210B301A1D884353
:1055A000821A0AD05142995007E0311A281C00F0A3
:1055B0005FF9431CBAD0331CECE770BDE407002050
:1055C000E0070020F0B58E6885B0071C0C1C039224
:1055D0000193B34245D390238A89DB001A423DD020
:1055E00003250969236801985B1A029363695D4387
:1055F000EB0F5D19029B6D1001331B189D4200D209
:105600001D1C381C53050FD5291CFFF783FF061EF0
:1056100013D0029A2169FFF734FCA289184B13407A
:1056200080221343A38111E02A1C00F04FF9061ECB
:105630000CD1381C2169FFF727FF0C2340220120E1
:105640003B60A38940421343A38117E0029B26617C
:10565000F61826606561019EED1AA560019BB342B4
:1056600000D2019E321C2068039900F013F900203B
:10567000A3689B1BA36023689E19266005B0F0BD3C
:105680007FFBFFFFF0B59FB0029005938B890E1C46
:10569000171C1B0610D50B69002B0DD14021FFF7FD
:1056A00039FF30603061002804D10C23029A0138A0
:1056B0001360D0E040237361002306AD6B6120339B
:1056C0006B761033AB763C1C2378002B03D1E31BA5
:1056D000049312D003E0252BF9D00134F4E7049BA6
:1056E0000298311C3A1CFFF76DFF431C00D1ACE05F
:1056F0006A69049B944663446B612378002B00D154
:10570000A3E00122002352426A6002A954325218D7
:1057100001342B60EB60AB601370AB654F4F2178A9
:10572000381C0522FFF7A2FB002808D0C01B012768
:105730008740381C2B68013418432860EEE72B683B
:10574000DA0604D55322202102A8121811701A0774
:1057500004D553222B2102A81218117022782A2A6C
:1057600001D0099B0EE0059A111D12680591002ACF
:1057700001DB099204E05242EA60022213432B60EB
:10578000013409E02278303A092A04D80A214B432F
:1057900001349B18F6E7099323782E2B18D16378F0
:1057A0002A2B09D1059B02341A1D1B680592002B78
:1057B0000DDA01235B420AE0002301342278303AFB
:1057C000092A04D80A214B4301349B18F6E70793B2
:1057D000234F2178381C0322FFF748FB002807D00D
:1057E000C01B40278740381C2B68013418432860B1
:1057F00021781C480622671C2976FFF737FB002812
:1058000012D0194B002B06D10722059B0733934377
:105810000833059314E005AB00930298291C321C51
:10582000124BFEF77FF807E005AB00930298291CA6
:10583000321C0E4BFEF71CFB0390039B013304D07C
:105840006B69039A9B186B613DE7B3890B985B0604
:1058500001D5012040421FB0F0BDC0460C7A0010B7
:10586000127A0010167A001025390010C555001064
:1058700038B50023064C051C081C2360FCF718FAF9
:10588000431C03D12368002B00D02B6038BDC046D9
:105890008409002010B5814208D28B18984205D2A5
:1058A0009B1A013A09D3995C8154FAE70023934289
:1058B00003D0CC5CC4540133F9E710BD031C82183B
:1058C000934202D019700133FAE77047F8B5061C0D
:1058D0000C1C151C002904D1111CFFF71BFE041C15
:1058E00018E0002A03D1FFF7CFFD2C1C12E000F0D6
:1058F00013F8A8420ED2301C291CFFF70BFE071E1E
:1059000007D0211C2A1CFFF7BCFA301C211CFFF712
:10591000BBFD3C1C201CF8BD0B1F1A68101F002A81
:1059200004DA891804390B68D0180438704700006D
:1059300002B4714649084900095C49008E4402BC22
:105940007047C0468446101C62468C46191C63464C
:1059500000E0C0461FB500F033FF002801D400214D
:10596000C8421FBD10B500F077FE4042013010BDA7
:1059700010B500F025FF002801DB002010BD01203C
:1059800010BDC04610B500F01BFF002801DD00204F
:1059900010BD012010BDC04610B500F0A1FE0028CA
:1059A00001DC002010BD012010BDC04610B500F084
:1059B00097FE002801DA002010BD012010BDC0466E
:1059C000F0B5454657464E4694464C000A03C90F6B
:1059D000E0B488460E1C1903470FC500480A61460B
:1059E000490F01436046520A1743C0005A00640D34
:1059F000520DDB0F8446984500D1A7E0A01A00287D
:105A000000DC01E1002A3DD163460B4300D0D4E025
:105A10006B0700D188E00F232B40042B00D183E0DB
:105A20002A1DAA42AD4180236D427F191B043B40D1
:105A30004646151C002B00D17CE0CC4B01349C4227
:105A400000D1FDE03A1CCA4BED081A40500764052E
:105A500052020543120B640D002112030B0D1B05AE
:105A60006405120B1A436308C24CF60714401C432A
:105A7000640064083443281C211C1CBC90469946D1
:105A8000A246F0BDB94B9C42C2D080231B041943EF
:105A9000382800DDECE01F2800DD21E120220E1C6B
:105AA0006346121A9640C340334366469640321C02
:105AB000561EB24113430A1CC240EB1A9D42B64126
:105AC0001D1CBA1A7642971B3B0200D497E07A025B
:105AD000560A002E00D1B6E0301CFDF743FE031C31
:105AE000083B1F2B00DDB7E09E40371C28262A1CF0
:105AF000361AF240161C9D403E439C4200DDB2E047
:105B00001C1B621C1F2A00DDD8E01F23291C1C1B44
:105B1000331CA540A340D1406C1EA541D64019437B
:105B20000D43371C002473E780231B043B4046468B
:105B300000D082E78D4BED0878070543FA089C42B8
:105B400032D012036405120B640D85E7A31A002BF3
:105B500000DC94E0002A3CD0844A944200D157E70C
:105B6000802212041143382B00DC05E163461943FF
:105B7000481E81410022C8B24019A8429B41051C21
:105B8000D2195B42D7183B0239D5784B01349C427D
:105B900000D14CE10120764A6B083A402840184376
:105BA000D5070543570833E72B1C134348D0802300
:105BB0001B031A431203120B4EE70138002878D159
:105BC0006346EE1AB5429B417A1A5B42D71A351CDE
:105BD0007AE7021C0A4300D11AE7013B002B00D0F0
:105BE000F2E04019A8429B41CA195B42D718051C34
:105BF000C9E7131C334300D118E1171C351C464676
:105C00006B0700D007E795E700287AD1621C5205A0
:105C1000520D012A00DCFBE06246AA1A9542B64109
:105C20009146781A7242861A320200D493E0624694
:105C3000551BAC458041CF1B40423E1A984648E771
:105C40000022002508E7281CFDF78CFD2030031CEE
:105C5000083B1F2B00DC47E7283885402E1C002519
:105C60009C4200DC4CE7424AE41A1640371CCFE65F
:105C7000634619434B1E99410022CBB21DE7002B0E
:105C800000D0F2E0601C43055B0D012B00DCA4E0BA
:105C9000364B984200D121E163465C19AC429B41EE
:105CA000CF195B42FA186408D50725435708041C2E
:105CB000AEE62E4B9C4200D0EAE6A9E6211C331C3E
:105CC0001F39CB40191C202A00D182E03F231C1B26
:105CD000A64035436E1EB54100270D4300248EE7D4
:105CE000031C0E1C203BDE40202874D040231B1ACE
:105CF00099400B1C62461343591E8B4100223343CB
:105D0000DBE6002C50D0194CA24200D1A8E0802440
:105D1000240440422743382800DDD9E01F2800DD55
:105D200039E120243E1C241AA640B0462E1CA14670
:105D3000C640444626434C46A5406C1EA541C7407C
:105D400035436046451BCF1BAC45894149427F1A0C
:105D5000141C9846B8E64B464D46334300D0B8E68F
:105D60000026002700240025E4E6C046FF070000C7
:105D7000FFFF7FFFFFFF0F801F2B5BDC2022081C33
:105D8000D21A9040814660469246D8404A46104317
:105D90008146524660469040021C501E8241484651
:105DA00010430A1CDA40E7E63C1C2C4358D0C043A1
:105DB000002851D16046451BAC458041CF1B404275
:105DC0003F1A141C98467FE68F4A944200D0CAE6D8
:105DD0001EE600267DE700238CE73B1C2B43002CAE
:105DE00000D0BDE0002B00D1F5E063460B4300D1AD
:105DF0000EE663465B19AB428041CA194042171850
:105E00003A0200D4FCE0814A1D1C17400134FFE532
:105E10003A1C2A43002C51D1002A00D085E062466A
:105E20000A4303D00F1C65469846F1E5002600277B
:105E300000257FE6181C0A1C2038C240202B00D108
:105E4000A7E04020C01A8140081C63461843411E49
:105E50008841104300228FE66B4CA24200D05AE7E3
:105E60000F1C6546141C9846D2E5002C3AD1381C0C
:105E7000284371D0DB43002B18D0634882426BD09B
:105E8000382B00DD9DE01F2B00DDA7E020203C1C0F
:105E9000C01A8440A1462C1C8246DC40484604437C
:105EA00050468540681E8541DF4025436544654571
:105EB0009B417F185B42FF18141C64E6002A19D12D
:105EC00062460A4377D00F1C654698464E4C9FE5C4
:105ED0003D436F1EBD410027EDB232E7041C002791
:105EE000002527E64848824236D0802000045B42E5
:105EF0000743C5E762460A4349D08024ED08780786
:105F0000FA0824032843224209D0CE08264206D1AB
:105F100062464F07381CD20810439846321CD20004
:105F2000470F1743C500384C72E562460A4300D15B
:105F30006EE56246AE1AB5429241781A5242821A12
:105F4000100200D455E66246551BAC458041CA1B81
:105F50004042171A98465BE50F1C6546141C57E52E
:105F6000002B34D063460B4311D08024ED08780712
:105F7000FA08240328432242D1D0CB082342CED1B1
:105F800062464F07381CD20810431A1CC7E71E4C44
:105F90003EE5002059E7041C3E1C203CE640341C32
:105FA00020282BD04026301A87403D436F1EBD412C
:105FB00000272543C5E680270026FF03124C002555
:105FC000B8E53D436F1EBD410027EDB26EE70F1CE3
:105FD00065460D4C1CE50F1C654619E51C1C381C5C
:105FE000203CE040041C202B0CD04020C31A9F40D2
:105FF0003D436F1EBD410027254357E70027D4E7E7
:106000001D1CFCE50027F3E7FF070000FFFF7FFFF3
:10601000F0B55F4656464D464446F0B40F0387B090
:1060200098464D003B0BCC0F061C924681469B4682
:106030006D0D01946BD0664B9D4235D080275B4639
:106040007F031F43F3009946624BFF00400F9C46BD
:1060500007430023BB4600266544009342461703CE
:106060005000D20F53463F0B400D904600D172E0D6
:10607000574A904267D080235B031F435346554ADB
:106080005B0FFF001F43944653460021DB00604432
:106090004246624092462D1A0E430F2E00D9A1E0CF
:1060A0004D48B600805987465B461E4300D076E0D7
:1060B00000239B469946023308260093CEE7994673
:1060C0004346BB4601930091009B022B6BD1019B81
:1060D0009A46002153460122002789461A403C4B2C
:1060E00000213F030C0D24053F0B27433B4C1B05B0
:1060F00027401F437F00D2077F0817434846391CBB
:1061000007B03CBC90469946A246AB46F0BD03435F
:106110003ED05B46002B00D19CE15846FDF722FBA8
:106120002823311C1B1A021C5F46D940083A9740AD
:106130000B1C96403B439B46B1460023284D00264E
:106140002D1A00938AE7524603213A43A0D1002733
:10615000002302219CE752463A4315D0002F00D17C
:1061600085E1381CFDF7FEFA021C28215046891AE9
:10617000131CC8405146083B99409F400B1C0743E5
:1061800017480021801A83E70027002301217FE7B9
:1061900000239B4699460133042600935EE70323C0
:1061A0000C2600935AE7032B00D13CE2012B00D0D0
:1061B000BFE11A1C019B1A400021002300278946D9
:1061C0008EE700238027994600223F03004B87E794
:1061D000FF07000001FCFFFF207A0010FFFF0F8087
:1061E0000DFCFFFFBB4500D951E100D14CE14A460F
:1061F000039200225C469046013D180E3F02384350
:106200001B020193030C994603041B0C4946061C10
:10621000201C1F1C0093FDF723F9021C7A430290F7
:106220004946201C171CFDF7A1F9039B09041B0C10
:1062300019438F420CD9029B8919013B8E4200D928
:1062400052E18F4200D84FE1029B8919023B029331
:10625000CC1B201C4946FDF703F9009F83464743AA
:106260004946201CFDF782F9039A0B041404240C00
:1062700023439F420DD95A469B19013A9E4200D9A9
:1062800030E19F4200D82DE10222524294469B19F0
:10629000E344029ADB1B17045A463A439346019C97
:1062A000170C220C101C04925A4611042204120CE2
:1062B000141C090C7C4305924A434143474361182F
:1062C000100C09188C4203D9802040028446674490
:1062D0000C0C12040804120C3C198118A34200D2C1
:1062E000E5E000D1DFE01F1B43465C1AA045924168
:1062F0005242BF1AB74200D10EE1381C4946FDF7A1
:10630000AFF8009B029043434946381C9846FDF77E
:106310002DF9230C0F041F43B8450CD9029BBF195C
:10632000013BBE4200D9FBE0B84500D8F8E0029B33
:10633000BF19023B02934346FF1A4946381CFDF73A
:106340008FF8009B039043434946381C9846FDF75D
:106350000DF924040904240C214388450CD9039B1E
:106360008919013B8E4200D9DCE0884500D8D9E08C
:10637000039B8919023B03934346C91A029B039A64
:106380001B04059C1A43100C13049146221C049F05
:106390001B0C5A4344437B437843E318170CDB1927
:1063A0009C4203D980246402A44660441C0C12045D
:1063B0001B04120C00199B18814200D296E000D1F8
:1063C000FCE04A4601231A4391469B4BEB18002BF5
:1063D00000DC99E04A4652070AD00F2249460A409B
:1063E000042A05D0043149459241894652429344DA
:1063F0005A46D20106D55A46904B1A4080239346FE
:10640000DB00EB188E4A934200DD62E64A465946AD
:10641000D208490711435A4689465702514601227C
:106420005B053F0B5B0D0A405AE680205A4600038D
:10643000024208D0074206D107433F0399463F0B6B
:106440004246804B4CE65F4607433F033F0B221C0E
:106450007C4B45E6FDF786F9031C2030272800DC3D
:106460005EE6083B9E400023B346994665E65046EB
:10647000FDF778F9021C2032272A00DC75E6574622
:106480000838874000237BE6994500D2AFE65A469C
:10649000594654084A46C8075208024303924A46DE
:1064A000D2079046A9E60027884500D31CE7019F44
:1064B0005A46BC46E044B845BF417F42BF19FF1869
:1064C000013ABE4206D2BC425FD800D19FE03F1BDA
:1064D000934609E7B742FAD1019B4345F3D9371BED
:1064E000934601E79346D4E60293B1E64A468919FA
:1064F000013A8E4218D99146814200D061E7019A53
:106500009A4200D05DE760E74F4F7F1B382F13DDC5
:10651000012253461A404FE601235B42994654E755
:10652000029308E7039327E788423CD874D091464A
:1065300047E7019B9A4648E71F2F44DC434B4A46F6
:106540009C465B466544FA40AB4013434A46AA402A
:10655000151C6A1E95415A46FA402B43171C5A07D0
:1065600009D00F221A40042A05D01A1D9A429B41D5
:106570005B42FF18131C3A023ED55346012200210C
:106580001A40002701238946AAE502235B429C4664
:10659000019AE3449446E04490459B415B429B1939
:1065A000DF193F1BA0E6019F4A467C00BC42BF4169
:1065B0007F42BF19023AC91901949CE7002B95D17B
:1065C000002201929BE75A46214B5B1BDA40202FA9
:1065D00027D0204B9C465B466544AB4049460B4365
:1065E000591E8B411343072200271A4007D00F2260
:1065F00000271A40042AB8D17A077F023F0BDB0834
:1066000013439946012253461A40002368E5414549
:10661000BBD89346002767E6019C9C42C3D39146B2
:106620006DE70023DAE780275B463F031F433F0304
:106630003F0B019A034B53E5FF030000FFFFFFFEF2
:10664000FE070000FF07000002FCFFFF1E04000021
:10665000E2FBFFFF3E040000F0B55F464D464446B6
:106660005646F0B41F035C00DB0F99461B4B0E032C
:106670004D00C90F8446360B6D0D8B4690463F0B7F
:10668000640D9D420CD0154B9C4210D00123A542B5
:1066900014D0181C3CBC90469946A246AB46F0BDAF
:1066A000311C01230143F4D10C4B9C42EED13A43FF
:1066B0000123002AEDD10123A542EAD1BE42E8D14F
:1066C000C445E6D1CB4506D0002DE2D13043031CB2
:1066D000581E8341DDE70023DBE7C046FF070000CB
:1066E000F0B5574645464E46E0B40F034E00C90F7D
:1066F0008A4632491D035C0084463F0B760D904666
:106700002D0B640DDB0F8E420FD08C4239D0002E42
:1067100010D13843414241418946002C27D12A43B8
:1067200025D1002000290ED108E0391C01432ED1CB
:10673000B44226D0002C0BD09A450DD05346594276
:1067400001231943081C1CBC90469946A246F0BD83
:106750002A43F3D09A45F1D1A642EFDC1ADA50462B
:1067600041424841012341421943081CEBE74A4694
:10677000002AE1D058425841012241421143081CED
:10678000E1E7291C114302D1002EC2D0D4E7022038
:106790004042D8E7AF42D1D809D00020AF42D2D290
:1067A000504641424841012340421843CBE7C4458B
:1067B000C4D80020C445F3D3C5E7C046FF07000096
:1067C000F0B55F464D46444656468046F0B4061C3A
:1067D0000803000B84462C484C001F035D00C90FC2
:1067E000640D8B4691463F0B6D0DDB0F844212D03A
:1067F000854225D0002C14D161460E43704246419B
:10680000002D35D0002E21D058425841012143425D
:106810000B43181C0EE06146022031430AD1A54209
:106820000ED0002D12D13A4310D15B4659420123BC
:106830001943081C3CBC90469946A246AB46F0BDA5
:10684000391C02201143F5D1002CD5D09B45ECD149
:10685000AC42EADC05DBBC45E7D80FD00020BC45E4
:10686000E8D2584641424841414201200843E1E70D
:106870003A43C7D10020002EDCD1D6E7C845D4D892
:106880000020C845EDD3D5E7FF070000F0B55F460F
:1068900056464D464446F0B4051C061C080387B016
:1068A00099464F00030BCC0F92469B467F0D0194F7
:1068B00067D06C4B9F4236D080205B464003184324
:1068C000C0006B0F1843684B83469C4600239846D4
:1068D000EE00674400934B4649461D03C90F5B0019
:1068E00052462D0B5B0D894600D16EE05D498B420F
:1068F00064D080205C4940038C4600210543ED00B4
:10690000500F0543D20063444846FF187B1C9A464B
:10691000009B604002900B430F2B00D9ACE0534822
:106920009B00C3589F465B461D4300D082E008236E
:10693000009300239B46023300269846CBE7029B38
:1069400001934346022B59D1012400250026019BC7
:106950001C40444B00212D030A0D12052D0B15433D
:10696000434A1B0515401D436D00E4076D08254390
:10697000301C291C07B03CBC90469946A246AB4649
:10698000F0BD2B434ED05B46002B00D185E158462D
:10699000FCF7E8FE021C2823291C9B1A161C5846EB
:1069A000D940083EB0400B1CB54003439B462E1C0B
:1069B0000023304F0093BF1A98468CE75146294375
:1069C0002ED10025002202219EE75146294323D0E3
:1069D000002D00D154E1281CFCF7C4FE031C282123
:1069E0005046C91A1A1CC8405146083A9140954071
:1069F0000A1C05431F480021C31A85E7032B00D159
:106A0000C2E1012B00D06DE14446019B00251C40F2
:106A1000E4B2002300269DE700250022012173E750
:106A2000032171E70423009300239B4601330026D2
:106A3000984650E70C230093093B98464BE7802586
:106A400000242D030026074B84E74B46AB46161C5B
:106A50000193884675E7029BAB46161C0193884656
:106A60006FE7C046FF07000001FCFFFF607A0010DF
:106A7000FFFF0F800DFCFFFF330C3604360C9C46E5
:106A8000331C140C1204120C5343984663465343B0
:106A90009946634663430193331C41466343090CA3
:106AA0004B445B18994505D98020400281460199E5
:106AB00049440191190C039141460904090C1B0436
:106AC0005B1804932B0C9846331C2D04290C4B4364
:106AD000604600934346654658435E43009B4D43E2
